:020000040800F2
:10000000A007002065210008ED080008EF0800089F
:10001000F3080008F7080008FB08000800000000CB
:10002000000000000000000000000000FF080008C1
:100030000109000800000000030900080509000884
:100040007F2100087F2100087F2100087F21000810
:100050007F2100087F2100086D110008BB110008F6
:100060007F210008CB1200080F1300087F21000831
:100070007F2100087F2100087F2100087F210008E0
:100080007F2100087F2100087F2100087F210008D0
:100090007F2100087F2100087F21000859120008F5
:1000A000031B0008FF1700087F2100087F210008BC
:1000B0007F210008AF0E00087F2100087F21000883
:1000C0007F2100087F2100087F2100087F21000890
:1000D0007F210008391F00087F2100087F210008C8
:1000E000FF1100087F2100087F2100087F21000800
:1000F0004F0D00087F2100087F2100087F210008A4
:100100007F2100087F2100087F2100087F2100084F
:100110007F2100087F2100087F2100087F2100083F
:100120007F2100087F2100087F2100087F2100082F
:100130007F2100087F2100087F2100087F2100081F
:100140007F2100087F2100087F2100087F2100080F
:100150007F2100087F2100087F2100087F210008FF
:100160007F2100087F2100087F2100087F210008EF
:100170007F2100087F2100087F2100087F210008DF
:100180007F2100087F21000800F002F800F03CF811
:100190000AA090E8000C82448344AAF10107DA45E2
:1001A00001D100F031F8AFF2090EBAE80F0013F0F8
:1001B000010F18BFFB1A43F0010318476C41000000
:1001C0008C410000103A24BF78C878C1FAD8520791
:1001D00024BF30C830C144BF04680C6070470000C1
:1001E0000023002400250026103A28BF78C1FBD840
:1001F000520728BF30C148BF0B6070471FB504F0DD
:100200008DF81FBD10B510BD04F059F81146FFF769
:10021000F5FF00F07DFA04F077F803B4FFF7F2FF82
:1002200003BC01F0C5FD00006320FE49088040F2D8
:10023000572008816320488040F2AF404881632006
:100240008880592088816320C88040F28330C8812B
:100250009FEDF50AF54880ED000A9FEDF50A80ED67
:10026000010AC820F349C861704710B5FFF7DCFFE9
:1002700000F0EBFE01F0C8F801F06CF8642001F02A
:1002800077FDE84A5189508800F0A9FCE549488883
:1002900000EBD0714910E84A1160642001F068FD5C
:1002A000E04A1189108800F037FCDE49088800EB2D
:1002B000D0714910E14A1160642001F059FDD94A1A
:1002C0009189908800F0F8FCD649888800EBD071BD
:1002D0004910DB4A1160642001F04AFDD14AD189FE
:1002E000D08801F0D5F9CF49C88800EBD07149100A
:1002F000D44A51630A2001F03BFD01F03BF9322062
:1003000001F036FDA72142F20F7001F042FA10BD54
:1003100010B50446012C13D1C103CB4802F09AF862
:1003200070B10120C34981F820000020C74908703E
:1003300000F02FFF0121C148343802F04DFC3AE0B3
:10034000022C13D11021C24802F084F870B10120B0
:10035000B84981F821000020BC49887000F0A0FF56
:100360000121B548343802F037FC24E0032C1DD1BC
:100370000120B04981F822009FEDB60A084680EDC1
:10038000020A0A2001F050F9B5EEC00AF1EE10FAA7
:1003900003DD002001F024F802E0012001F020F844
:1003A0000121A748383802F017FC04E0042C02D1E0
:1003B000012001F0D1F910BD10B500F0EFFD3220A1
:1003C00001F0D6FC0320FFF7A3FF0120FFF7A0FFF9
:1003D000642001F0CDFC0220FFF79AFF002001F01D
:1003E000BBF96CE04FF40041974802F033F810B1CC
:1003F0009648007858B100219048343802F0ECFB60
:1004000001209249087000208A4981F820001021BB
:100410008F4802F01FF810B18C48807858B1002145
:100420008548343802F0D8FB0120884988700020C4
:10043000804981F821000221874802F00BF838B981
:10044000012000F0A6FE01217C48343802F0C4FBF4
:1004500008217D4801F0FEFF38B9012000F020FF9F
:1004600001217548343802F0B7FB20217B4801F0A8
:10047000F1FF30B90021734802F0AEFB002078494B
:10048000087072480078D0B170488078B8B19FED9C
:10049000710A744880ED000A9FED6E0A80ED010A32
:1004A0009FED6C0A80ED020A00216348343802F0A7
:1004B00093FB00216148343802F08EFB00E091E7A5
:1004C00000BF10BD10B502460AE000BF664B1B8896
:1004D00003F04003002BF9D01378634CA380521C27
:1004E0000B00A1F10104E1B2EFD110BD3CB5002039
:1004F00000900190002400257B208DF800005B48CF
:10050000007D8DF8010000208DF8020000BF04E09E
:100510001DF804004540601CC4B2032CF8DBE8B2AF
:100520008DF803000A208DF8040005216846FFF7C6
:10053000C9FF3CBD3CB5002000900190002400257F
:100540007B208DF80000FF208DF801008DF802005F
:1005500000BF04E01DF804004540601CC4B2032C39
:10056000F8DBE8B28DF803000A208DF804000521BD
:100570006846FFF7A7FF3CBD70B502460020144651
:10058000002303E014F8015B68405B1C8B42F9DB3D
:1005900070BD10B500247B203549087001204870DB
:1005A000304890ED000A084680ED060A2D4890ED8F
:1005B000010A084680ED070A2A4890ED020A08461B
:1005C00080ED080A274890ED030A084680ED090AE5
:1005D00000BF07E026481830015DA01C244A1154D2
:1005E000601CC4B2042CF5DB002407E020481C305A
:1005F000015DA01D1E4A1154601CC4B2042CF5DB21
:10060000002408E01A482030015D04F10A00184A6D
:100610001154601CC4B2042CF4DB1648C078144991
:10062000887329E050000020EC51383EA4000020DF
:1006300052499D3C6C00002034040140341C0040B1
:10064000380400400000014000040240180000206F
:10065000000802400000000000000240000C0240C0
:10066000260000209400002000100140B00000206F
:10067000DC0000201E0000204FF480618E4801F055
:10068000E9FE8E49C87300200874487412218B4813
:10069000FFF772FF894988740A20C87414218748BB
:1006A000FFF710FF10BD10B50221854801F0D2FE02
:1006B00038B98448007820B90021834802F08CFAC8
:1006C0000BE001217E4801F0C5FE30B97D4800787D
:1006D00018B100217C4802F07FFA08217B4801F024
:1006E000B9FE38B97748407820B90021784802F03F
:1006F00073FA0CE04FF40041714801F0ABFE30B9E1
:100700007048407818B10021714802F065FA10BDB8
:100710004FF4A06001F046FDA82001F0C7FA4FF4A5
:10072000E13001F052FB00F0ADFEFFF79EFD44F218
:100730009F1140F2CF7001F089F9FFF73DFE642070
:1007400001F016FB40F27121042000F0FDFEB1E043
:1007500060480078002862D05F48007D092857D2A1
:10076000DFE800F005181B2A393E444A50005B4878
:10077000007850B90121544802F02EFA0121544862
:1007800002F02AFAFFF78FFF03E00021544802F03D
:1007900023FA40E0FFF7FDFE3DE001214C4802F066
:1007A0001BFA0121484802F017FA01214C4802F0D7
:1007B00013FAFFF79BFE2EE00021454802F00CFAE9
:1007C0000021414802F008FA0021454802F004FAED
:1007D000FFF78CFE1FE0FFF7EFFDFFF787FE1AE043
:1007E000012000F0B9FFFFF781FE14E0002000F0C7
:1007F000B3FFFFF77BFE0EE00120FFF789FDFFF757
:1008000075FE08E00220FFF783FDFFF76FFE02E0B0
:10081000FFF790FE00BF00BF00202E49087031484E
:10082000007820B1FFF7B5FE00202E4908700020A7
:1008300000F047FE01281ED0022839D101212448AA
:1008400002F0CAF90121204802F0C6F9012124482A
:1008500002F0C2F90121244801F018FE40211B4892
:1008600001F012FE4FF40071184801F00FFE002055
:100870001A4908701DE00021154802F0ADF9002169
:10088000114802F0A9F90021154802F0A5F901214B
:10089000154801F0FBFD40210C4801F0F7FD4FF435
:1008A00000710A4801F0F0FD01200C49087000E0D9
:1008B00000BF00BF4CE70000000C0240DC0000203D
:1008C000000002401E000020001C00400004024006
:1008D000000401403C000020B00000200000002087
:1008E000000400402400002000100240704700BFB8
:1008F000FEE700BFFEE700BFFEE700BFFEE7704770
:1009000070477047704700000CB5002001900090C0
:100910007648006840F480307449086000BF73482E
:10092000006800F4003000900198401C019000988D
:1009300018B90198B0F5A04FF1D16C48006800F4E7
:10094000003010B10120009001E0002000900098DC
:10095000012846D165484030006840F08050634926
:10096000403108606248006840F4404060490860D7
:100970005E48083000685D49083108600846006834
:1009800040F4004008600846006840F4A050086049
:100990005848091F0860081F006840F08070091F50
:1009A000086000BF5148006800F000700028F9D0CE
:1009B00040F20570504908604C480830006820F04B
:1009C00003004A49083108600846006840F0020008
:1009D000086000BF45480830006800F00C00082897
:1009E000F8D10CBD10B54548006840F4700043498B
:1009F00008603E48006840F001003C490860002063
:100A00003A4908310860394800683D49084037498B
:100A100008603C48091D0860081F006820F4802019
:100A2000091F0860002031490C310860FFF76CFF96
:100A30004FF0006031498039086010BD70B500206A
:100A40000022022300240221284D08352D6805F0DC
:100A50000C0020B1042806D0082834D107E02A4D24
:100A60002A4E356033E02A4D284E35602FE01F4D69
:100A70002D1D2D68C5F380541C4D2D1D2D6805F0CE
:100A80003F0154B1224DB5FBF1F5184E361D3668C5
:100A9000C6F3881605FB06F209E01B4DB5FBF1F520
:100AA000124E361D3668C6F3881605FB06F20F4D4A
:100AB0002D1D2D68C5F301456D1C6B00B2FBF3F5D0
:100AC000124E356003E0104D104E356000BF00BF80
:100AD000064D08352D68C5F303150E4E705D0B4DA0
:100AE0002D68C540094E356070BD000000380240D9
:100AF0000070004008544007003C024088ED00E0D0
:100B0000FFFFF6FE103000240024F4000400002053
:100B100000127A000800002030B58BB004460D4664
:100B20000121802002F0E1FF0121084602F094FF3C
:100B300009220621FD4801F0B6FC40200990022060
:100B40008DF8280003208DF8290000208DF82A0058
:100B500001208DF82B0009A9F44801F019FCA8B276
:100B6000ADF8180007940020ADF81A00ADF8200089
:100B700006A9EF4801F0A7FF0121ED4802F058FC5B
:100B800001221146EA4802F03FFC2C208DF80000BB
:100B900001208DF8030002208DF8010001208DF85E
:100BA0000200684601F003FB6020ADF8040001205C
:100BB000ADF806000220ADF8100001A9DC4802F0F3
:100BC00017F80821DA4802F0A0F90121D84801F00D
:100BD000E5FF0021D64801F0FFFF0BB030BD30B576
:100BE0008BB005460C460121042002F035FF01219F
:100BF000022002F08BFF03220621CE4801F053FCB5
:100C00004020009002208DF8040003208DF805009C
:100C100001208DF8070000208DF806006946C548C0
:100C200001F0B6FB0995A0B2ADF820000020ADF8A8
:100C30002200ADF8280008A9BF4801F044FF0121B7
:100C4000BD4802F0F5FB01221146BB4802F0DCFB77
:100C50002C208DF81C0002208DF81D0001208DF83D
:100C60001E008DF81F0007A801F0A1FA6020ADF862
:100C700008000120ADF80A000020ADF81A004FF47A
:100C80008070ADF818000220ADF8140002A9AA483F
:100C900001F0AEFF0821A84802F037F90121A6486B
:100CA00001F07CFF0121A44802F087FB0021A2484B
:100CB00001F092FF0BB030BD30B58BB005460C464D
:100CC0000121042002F0C8FE0121022002F00DFFE4
:100CD00002220721974801F0E6FB802006900220BF
:100CE0008DF81C0003208DF81D0001208DF81F00D9
:100CF00000208DF81E0006A98E4801F049FB0995D9
:100D0000A0B2ADF820000020ADF82200ADF8280018
:100D100008A98A4801F0D7FE6020ADF80400012040
:100D2000ADF806000220ADF8100001A9834801F0DB
:100D300098FF0821814802F0F1F801217F4801F075
:100D40002DFF00217D4801F047FF0BB030BD10B5ED
:100D50000121774802F06FFB012850D178480068E4
:100D600020B99FED780A784880ED000A774890F81E
:100D70002000E8BB7648007858B1734890ED000A2F
:100D80007448D0ED010A30EE200A6F4880ED000A69
:100D90000AE06D4890ED000A6E48D0ED010A30EE91
:100DA000600A694880ED000A674890ED000A6A48C9
:100DB000D0ED000AB4EEE00AF1EE10FA02DB64486E
:100DC000007868B9604890ED000A6348D0ED000AE9
:100DD000B4EEE00AF1EE10FA0DD85D48007838B9AB
:100DE0000021534801F0F8FE5848406A401E00E0D8
:100DF00001E05649486201214D4802F019FB0121EA
:100E00004D4802F018FB012850D15448006820B921
:100E10009FED4C0A4C4880ED010A4C4890F82100A7
:100E2000F0BB4B48407858B1474890ED010A49481B
:100E3000D0ED010A30EE200A434880ED010A0AE0B5
:100E4000414890ED010A4348D0ED010A30EE600AB6
:100E50003D4880ED010A3C4890ED010A3E48D0ED46
:100E6000010AB4EEE00AF1EE10FA02DB38484078ED
:100E700068B9354890ED010A3748D0ED010AB4EE63
:100E8000E00AF1EE10FA0DD83148407840B900215F
:100E9000294801F0A1FE2D48406A401E2B4900E080
:100EA00000E048620121244802F0C2FA10BD10B5EA
:100EB0002DED028B9FED230AB0EE408A01211F48E1
:100EC00002F0B9FA012861D1204890F8220060BBF5
:100ED0001E484069401C1D4948611D48807858B132
:100EE000194890ED020A1B48D0ED010A30EE200AA5
:100EF000154880ED020A0AE0134890ED020A1548F1
:100F0000D0ED010A30EE600A0F4880ED020A0F486A
:100F100090ED050AB8EE400A0E48D0ED010A20EE29
:100F2000200AB0EE408A09481AE02BE00000024097
:100F3000001C004000080240000401400004004082
:100F40003C82404200000000940000206C00002021
:100F50001E000020A400002060000020100241427A
:100F600090ED020AB4EEC80AF1EE10FA0AD8002198
:100F7000084801F031FE0020074948610846406AF0
:100F8000401E48620121034802F052FABDEC028B78
:100F900010BD0000000400406C00002000B585B0CA
:100FA0000121062002F058FD1020039000208DF84A
:100FB00010008DF8120003208DF8110001208DF82B
:100FC000130003A9F74801F0E3F94FF40040039040
:100FD00003A9F54801F0DCF90121880302F096FD30
:100FE0000F21012002F025FB0421022002F021FB49
:100FF00048F21000009000208DF804000C208DF8BD
:10100000050001208DF80600684602F087FE2820C2
:101010008DF8080002208DF8090001208DF80A00E3
:101020008DF80B0002A801F0C2F80A208DF8080024
:1010300002208DF8090001208DF80A008DF80B00C0
:1010400002A801F0B4F805B000BD00B585B00121DB
:101050000B2002F001FD48F20300039000208DF800
:1010600010008DF8120003208DF8110001208DF87A
:10107000130003A9CD4801F08BF90820039003A9C0
:10108000C94801F085F90121880302F03FFD0021E4
:10109000084602F0CEFA0121002002F0CAFA0F2120
:1010A000002002F0C6FA0321012002F0C2FA052155
:1010B000032002F0BEFA0621032002F0BAFA48F239
:1010C0006B00009000208DF804000C208DF80500C6
:1010D00001208DF80600684602F020FE06208DF8FB
:1010E000080002208DF8090001208DF80A008DF813
:1010F0000B0002A801F05BF807208DF80800022021
:101100008DF8090001208DF80A008DF80B0002A867
:1011100001F04DF809208DF8080002208DF8090033
:1011200001208DF80A008DF80B0002A801F03FF8AD
:1011300017208DF8080002208DF8090001208DF895
:101140000A008DF80B0002A801F031F828208DF874
:10115000080002208DF8090001208DF80A008DF8A2
:101160000B0002A801F023F805B000BD10B5012066
:1011700002F03AFE60B1052000F0FAFD8C480068EC
:1011800018B900218B4801F027FD012002F037FE3D
:1011900010BD10B50446012C06D187490870802186
:1011A000814801F071F907E034B9002082490870E4
:1011B00080217D4801F06AF910BD10B5022002F0CF
:1011C00013FED8B1052000F0D3FD7948001D00685A
:1011D00088B90021774801F0FFFC01207749487069
:1011E000774890F8200030B10120FFF7D2FF0121AD
:1011F000704801F0F1FC022002F001FE10BD10B5B4
:101200004FF4004002F0F0FD28B3052000F0B0FDDF
:101210006C48006898B90120684908709FED6A0A17
:101220006A4880ED000A664890F8200038B1002135
:10123000604801F0D1FC0020614981F820005C4841
:101240003C30006818B90021614801F0C5FC4FF43A
:10125000004002F0D4FD10BD10B5202002F0C4FD06
:1012600058B1052000F084FD5A48006810B9FA20F2
:1012700053498861202002F0C2FD402002F0B4FDF5
:1012800068B1052000F074FD5248001D006818B9CF
:101290004B48C0694A498861402002F0B0FD10BD4A
:1012A00010B50446012C06D14349487001023E485E
:1012B00001F0EAF808E03CB900203F4948704FF4DB
:1012C0008071394801F0E2F810BD10B5082002F035
:1012D0008BFDD8B1052000F04BFD3A48303800684E
:1012E00088B900213A4801F077FC01203349C870E1
:1012F000334890F8210030B10120FFF7D1FF0121E0
:10130000334801F069FC082002F079FD10BD10B5EA
:10131000102002F069FDE0B1052000F029FD2E4803
:10132000006898B90120254988709FED270A274851
:1013300080ED010A224890F8210038B100212448AC
:1013400001F04AFC00201E4981F82100102002F023
:1013500056FD10BD1CB501210B2002F07DFB4FF4A2
:10136000C070009001208DF8040000208DF8060068
:1013700003208DF8050001208DF8070069460A4812
:1013800001F006F8182000906946144801F000F8B2
:101390008021054801F07AF84FF48071024801F08D
:1013A00075F81CBD00080240000402400000024025
:1013B00000024042001C00401E00002018000020D7
:1013C0006C0000203C82404200000000940000209D
:1013D000000401401482414210024142000C0240CC
:1013E00010B50446012C06D122498870802122487C
:1013F00001F04CF807E034B900201E4988708021C4
:101400001D4801F041F810BD1CB501211A2002F061
:1014100023FB4FF41870009001208DF80400002089
:101420008DF8060003208DF8050002208DF80700D6
:101430006946124800F0ACFF012000906946104850
:1014400000F0A6FF8020009001208DF8070069467B
:10145000094800F09DFF1CBD10B5044624B11021C1
:10146000054801F011F803E01021034801F00EF8DF
:1014700010BD00001E000020000C024000040240CD
:10148000001002401CB501210C2002F0E5FA4FF4D7
:101490004070009000208DF8040003208DF80500B6
:1014A00001208DF807006946244800F071FF0220F2
:1014B0008DF80700400200906946214800F068FF5F
:1014C0001CBD10B5044614B101201E4908701D480A
:1014D000007808B34FF48071184800F0BBFF28B1C2
:1014E0004FF40071154800F0B5FFA8B9962000F040
:1014F0003FFC0020134908704FF400710F4800F0C2
:10150000A9FF08B9012010BD4FF480710B4800F00D
:10151000A1FF80B90220F6E74FF48071074800F080
:1015200099FF012807D14102044800F093FF0128E8
:1015300001D1044908700020E5E7000000080240DE
:10154000000C02402200002070B505460C4645F212
:10155000555002F05DFC284602F05DFC204602F08A
:101560005DFC02F05EFC02F061FC70BD10B502F0A3
:1015700058FC10BD00B58DB00121084602F06CFA90
:101580000121080202F0C2FA80200B9003208DF89E
:10159000300000208DF833000BA9394800F0F8FE28
:1015A0000121080202F007FB00214FF4807002F0D5
:1015B00002FB002007900A9009904FF480300890B9
:1015C00007A802F07FFC002001908DF808000120A0
:1015D0008DF8090000200390059001208DF8180077
:1015E00001A9284802F03FFC0121264802F081FCB5
:1015F0000DB000BD10B50446072301222146214845
:1016000002F0B7FC1F4802F010FD00BF02211D4888
:1016100002F02CFE0028F9D002211A4802F02FFE19
:10162000184802F03EFD10BD70B5054600240026A6
:1016300005E00720FFF7DEFF0444701CC6B2AE428F
:10164000F7DBB4FBF5F400EE104AF8EE400A9FED2C
:101650000E1A9FED0E0A10EE810A70BD70B5044699
:101660000025002605E00720FFF7C4FF0544701C95
:10167000C6B2A642F7DBB5FBF4F5284670BD000004
:101680000000024000200140CDCCCC3E0000C8420A
:1016900030B58BB005460C460121084602F0DCF956
:1016A0000121084602F032FA01220821FE4800F02A
:1016B000FAFE4FF48070009002208DF804000320A1
:1016C0008DF8050001208DF807006946F64800F006
:1016D0005FFE0995A0B2ADF820000020ADF8220011
:1016E000ADF8280008A9F14801F0EDF90121EF4813
:1016F00001F09EFE01221146EC4801F085FE192002
:101700008DF81C0003208DF81D0001208DF81E00AF
:101710008DF81F0007A800F04AFD6020ADF8080012
:101720000120ADF80A000220ADF8140002A9DF483C
:1017300001F05EFA0821DD4801F0E7FB0121DB48FA
:1017400001F02CFA0121D94801F037FE0021D748D9
:1017500001F042FA0BB030BD10B5044640F6B83087
:10176000D3498861012C07D10120D249C8701021CA
:10177000D14800F089FE07E034B90020CD49C87097
:101780001021CD4800F082FE0121C84801F024FA62
:1017900010BD7FB504460D460121480402F0B6F99C
:1017A000A8B2ADF804000020ADF806000294ADF830
:1017B0000C008DF80E0001A9C04801F084F9012148
:1017C000BE4801F049FE01221146BC4801F01CFE52
:1017D0000121BA4801F0E2F919208DF80000032038
:1017E0008DF8010001208DF802008DF80300684695
:1017F00000F0DDFC0121B14801F0EEF97FBD10B52C
:101800000121AE4801F017FE00287CD00121AB4831
:1018100001F022FEFFF7AAFE4FF48061A64800F017
:1018200019FEE0B10021A64801F0D6F90021A54833
:1018300001F0D2F90021A44801F0CEF90121A3481A
:1018400000F022FE4021A24800F020FE4FF400717B
:101850009F4800F01BFE00209E49087010BD944870
:1018600090F8200018B10121964801F0B5F9904890
:1018700090F8210018B10121914801F0ADF98C4890
:1018800090F8220018B101218F4801F0A5F901213B
:101890008E4800F0FBFD0520FFF7C6FE8E4880ED68
:1018A000020A90ED020A8D48D0ED020AB4EEE00A79
:1018B000F1EE10FA0BDB7F48807840B100218248BE
:1018C00001F08AF900207A4981F8220015E0824867
:1018D00090ED020A8148D0ED020AB4EEE00AF1EE82
:1018E00010FA0AD87348807838B90021764801F098
:1018F00073F900206E4981F82200774890ED020AC2
:10190000DFED770A00E081E0B4EEE00AF1EE10FAD4
:1019100007D86848807820B900216B4801F05CF94D
:1019200010E06D4890ED020ADFED6E0AB4EEE00AB9
:10193000F1EE10FA06DB5F48807818B100216248AA
:1019400001F04AF9644890ED020AB5EEC00AF1EEE2
:1019500010FA03D29FED640A80ED020A0221524878
:1019600000F078FD38B95348007820B90021554877
:1019700001F032F90BE001214B4800F06BFD30B96A
:101980004C48007818B100214E4801F025F9082193
:101990004F4800F05FFD38B94648407820B9002133
:1019A000474801F019F90CE04FF400413E4800F0BF
:1019B00051FD30B93F48407818B10021404801F04E
:1019C0000BF920213C4800F045FD68B93948C07842
:1019D00050B94648007838B90020444908700021C1
:1019E000324801F0F9F811E04021334800F032FDAF
:1019F00060B93048C07848B13C48007830B1012027
:101A00003A4908700021294801F0E6F801212748E9
:101A100001F011FDC0B126488069401E244988614B
:101A20000846806900280BDA0021204801F0D4F82C
:101A30002E48007808B9012000E000202B490870EA
:101A400001211A4801F008FD00BF07E77FB50446F1
:101A50000D460121080402F059F8ADF80450029433
:101A60000020ADF80600ADF80C0001A9204801F0F7
:101A70002AF8012211461E4801F0C6FC18208DF8F4
:101A8000000003208DF8010002208DF802000120E3
:101A90008DF80300684600F08AFB0821144801F025
:101AA0003DFA0121124825E00000024000000140FB
:101AB0006C0000201E000020000C02400044014089
:101AC00000040140001C00400004004000100240DF
:101AD000000402400000002094000020600000206C
:101AE00000000CC2008054440000000026000020CA
:101AF0000040014001F052F801215A4801F06CF811
:101B00007FBD10B50121574801F095FC012871D126
:101B1000554890ED020A5548D0ED020AB4EEE00AAD
:101B2000F1EE10FA2DDD5248807818B30A20FFF745
:101B300095FD00EE100AB8EE400A4E4880ED000A0E
:101B400090ED000A4C48D0ED000A30EE600AF1EE4C
:101B5000040AB4EEE00AF1EE10FA0CD20021474874
:101B600001F03AF8002042498870B2EE040A424877
:101B700080ED000A05E03F4890ED000A3E4880ED08
:101B8000000A3F4800680521B0FBF1F201FB12009A
:101B900088BB4FF480613B4800F05CFC58BB3A487E
:101BA000007840BB394890F8200038B9374890F8A1
:101BB000210018B9354890F8220068B10121344855
:101BC00000F064FC4021334800F060FC4FF40071E9
:101BD000304800F059FC13E001212D4800F056FC7C
:101BE00040212C4800F050FC4FF40071294800F0CF
:101BF0004DFC05E034E0FFE74021264800F046FCBC
:101C00004FF40071244800F025FC28B923480078DF
:101C1000401C2249087002E00020204908701F483B
:101C200000780F2810DD00BFBFF34F8F1C480068FD
:101C300000F4E0601B490843001D19490860BFF328
:101C40004F8F00BF00BFFEE70D480068401C0C49E5
:101C500008600120144908700121024801F0E8FBE6
:101C600010BD0000004001406000002094000020F2
:101C70001E0000202C000020300000200004004046
:101C800028000020000C0240000000206C00002012
:101C9000001002400004024000080240250000201D
:101CA0000CED00E00000FA052400002010B5044609
:101CB0006FF0040000F0C8FAE11704EB5171C1F3B2
:101CC000C701394A11701046007800EB4001C1EBA2
:101CD000C0104FF6FF7101EAC0003449088010BD02
:101CE0000146314A12784A434FF0E0235A610022FC
:101CF0009A611A46126942F001021A6100BF4FF060
:101D0000E022106900F001021AB100F48032002ACA
:101D1000F5D04FF0E022126922F001024FF0E023EB
:101D20001A6100229A6170470146204A12884A438C
:101D30004FF0E0235A6100229A611A46126942F07C
:101D400001021A6100BF4FF0E022106900F00102A9
:101D50001AB100F48032002AF5D04FF0E022126967
:101D600022F001024FF0E0231A6100229A617047CD
:101D700070B504464FF4077094FBF0F0C6B24FF410
:101D8000077094FBF0F100FB114085B205E04FF4C1
:101D90000770FFF7C9FF701EC6B2002EF7D115B14C
:101DA0002846FFF7C1FF70BD340000203600002038
:101DB00000BF704700BFDD4A128802F04002002ACF
:101DC000F9D0C2B2D94B9A80704710B588B004469A
:101DD0000121084601F040FE0121102001F096FE8D
:101DE00007220921D24800F05EFB07220A21D048D1
:101DF00000F059FB4FF4C060069002208DF81C00E3
:101E00008DF81D0000208DF81E0001208DF81F00A8
:101E100006A9C74800F0BCFA02940020ADF80C00F7
:101E2000ADF80E00ADF81000ADF814000C20ADF8C0
:101E3000120002A9BD4800F0D6FB4021BB4800F0CB
:101E400042FD012240F22551B84800F00AFD25204C
:101E50008DF8040002208DF8050001208DF80600A1
:101E60008DF8070001A800F0A2F90121AF4800F0A9
:101E700042FC08B010BDF0EE400AF5EEC00AF1EEEB
:101E800010FA02D2B1EE600A7047B0EE600AFBE7CA
:101E900010B502460020DFEDA70AB0EE600A012966
:101EA0000FD100BF04E0831CD45CA34B1C54401C26
:101EB0000428F8DBA04B183BD3ED060AB0EE600A0D
:101EC00039E0022910D1002005E0831DD45C9A4B33
:101ED0001B1D1C54401C0428F7DB974B183BD3ED0B
:101EE000070AB0EE600A26E0032911D1002006E0BF
:101EF00000F10A03D45C904B08331C54401C0428A6
:101F0000F6DB8D4B183BD3ED080AB0EE600A12E009
:101F1000042910D1002006E000F10E03D45C864BAA
:101F20000C331C54401C0428F6DB834B183BD3EDC8
:101F3000090AB0EE600A10BD2DE9F04140F22551CA
:101F40007A4800F0C9FC002879D00026012777489C
:101F500000F000FCC5B279487949097845547B2DD9
:101F600003D077480078002805DD75480078401CCC
:101F70007349087002E000207149087070480078C9
:101F8000142871D100206E4908706C48C07C0A2862
:101F9000F7D1002403E06948005D4640641C122C20
:101FA000F9DB6648807CB04200D10027002F79D150
:101FB0004FF48061634800F04DFA0028F7D101200A
:101FC000614908705D4840785B49183908755B487D
:101FD0004078002867D102205C49486201215748B7
:101FE000FFF756FF5A4880ED000A02215348FFF7D9
:101FF0004FFF574880ED010A03215048FFF748FF83
:10200000534880ED020A90ED020AB5EEC00AF1EEE7
:1020100010FA03D29FED470A80ED020A4C4890ED7A
:10202000000A4C48D0ED000A30EE600AB5EEC00A56
:10203000F1EE10FA04DD0120FFF7ABF803E072E0E7
:102040000020FFF7A6F8424890ED010A4148D0ED84
:10205000010A30EE600AB5EEC00AF1EE10FA04DDB6
:102060000120FFF71DF903E052E00020FFF718F907
:10207000374890ED020A3748D0ED020A30EE600A88
:10208000324880ED020AD0ED020AB0EE600AFFF796
:10209000F2FEF2EE040AB4EEE00AF1EE10FA03D218
:1020A000BDE8F08135E026E0284890ED020AB5EE63
:1020B000C00AF1EE10FA03DD0120FFF791F902E00A
:1020C0000020FFF78DF9214890ED020ADFED220A8A
:1020D000B4EEE00AF1EE10FA03DD9FED1F0A80ED89
:1020E000020A9FED140A1D4880ED000A01211C48D8
:1020F00000F072FD11E01148407801280DD1012156
:102100000E48FFF7C5FEBDEEC00A104880ED070A75
:1021100003E0FF2008491839087540F225510348AB
:1021200000F015FC00BF00BFBAE70000001001403E
:102130000000024000000000C8000020080100204C
:102140003D000020000C02403C0000206C000020FC
:1021500060000020940000200000E14330000020D7
:10216000000400400948804709480047FEE7FEE7B1
:10217000FEE7FEE7FEE7FEE7FEE7FEE7FEE7FEE737
:1021800004480549054A064B70470000E509000868
:1021900089010008A0010020A0070020A003002062
:1021A000A003002032490143324A1160704770B5E4
:1021B000002100230F22C4781CB32E4C246804F4A1
:1021C000E064C4F5E064C4F30721C1F10404E3B2A0
:1021D0000A4144789C40E1B28478144021430C07C2
:1021E000210E254C05786155047804F01F05012463
:1021F000AC4005786D11AD0005F1E025C5F8004152
:1022000009E0047804F01F050124AC401B4D06785A
:10221000761145F8264070BD194A0A400243154B15
:102220001B1F1A60704739B1124A121D126802430F
:10223000104B1B1D1A6006E00E4A121D12688243E5
:102240000C4B1B1D1A607047042808D14FF0E02189
:10225000096941F004014FF0E022116107E04FF0FD
:10226000E021096921F004014FF0E022116170477B
:102270000000FA050CED00E000E400E080E100E081
:1022800080FFFF1F10B504469848844208D1012101
:10229000084601F04CFC0021012001F048FC76E0EA
:1022A0009348844208D10121022001F040FC002122
:1022B000022001F03CFC6AE08E48844208D10121F2
:1022C000042001F034FC0021042001F030FC5EE029
:1022D0008948844208D10121082001F028FC00210E
:1022E000082001F024FC52E08448844208D10121F6
:1022F000102001F01CFC0021102001F018FC46E029
:102300007F48844208D10121202001F010FC0021E7
:10231000202001F00CFC3AE07A48844208D10121E7
:10232000402001F004FC0021402001F000FC2EE0E0
:102330007548844208D10121802001F0F8FB00217A
:10234000802001F0F4FB22E07048844208D1012192
:10235000801501F0ECFB0021A01501F0E8FB16E070
:102360006B48844208D10121401501F0E0FB0021B7
:10237000601501F0DCFB0AE06648844207D10121C8
:10238000001501F0D4FB0021201501F0D0FB10BD99
:10239000F0B50A4600210023002400BF3DE00125DE
:1023A00005FA01F3156805EA03049C4234D1056877
:1023B0004F000326BE40B543056015794E00B54079
:1023C0000668354305601579012D02D01579022D77
:1023D00016D185684F000326BE40B5438560557908
:1023E0004E00B540866835438560456801268E40BD
:1023F000B5434560456896798E40B6B23543456031
:10240000C5684F000326BE40B543C560D5794E0070
:10241000B540C6683543C560491C1029BFD3F0BD1F
:102420004FF6FF7101600021017141718171C1712D
:10243000704708B54FF480320092009A0A43009228
:10244000009AC261C161009AC261C2690092C26908
:10245000009208BD0246002013690B400BB1012019
:1024600000E0002070470146086980B270470246CC
:10247000002053690B400BB1012000E000207047A1
:102480000146486980B270470183704741837047B5
:102490000AB1018300E0418370474161704742699E
:1024A0004A4042617047F0B5002300244D07ED0E0D
:1024B00002FA05F3CE1000F1200555F826504E071C
:1024C000F70E0F26BE40B543CF1000F1200646F8A8
:1024D0002750CE1000F1200555F8265045EA030498
:1024E000CE1000F1200545F82640F0BD0000024066
:1024F0000004024000080240000C024000100240AC
:102500000014024000180240001C0240002002405B
:10251000002402400028024010B50446FA488442D4
:1025200008D10121102001F046FB0021102001F00C
:1025300042FB57E0F548844209D10121480401F0EB
:1025400029FB00214FF4003001F024FB4AE0F04861
:10255000844209D10121880401F01CFB00214FF4C1
:10256000802001F017FB3DE0EA48844209D10121B7
:10257000C80401F00FFB00214FF4002001F00AFB1A
:1025800030E0E548844209D10121080501F002FB51
:1025900000214FF4801001F0FDFA23E0DF4884426F
:1025A00008D10121202001F006FB0021202001F0AC
:1025B00002FB17E0DA48844209D10121880701F0C3
:1025C000E9FA00214FF0804001F0E4FA0AE0D54832
:1025D000844207D10121400501F0DCFA00216005A9
:1025E00001F0D8FA10BD2DE9FF4705460E4600243C
:1025F000A14600BFA046B08900B100BF2C8A24F4D8
:102600004054F08804432C82AC8941F20C6084432E
:10261000B08831890843718908430443AC81AC8A8E
:1026200024F44074B0890443AC82684601F043F955
:10263000B548854202D0B948854202D1DDF80C90F8
:1026400001E0DDF80890A88900F4004040B109EBF2
:10265000C90000EB091031684900B0FBF1F707E051
:1026600009EBC90000EB091031688900B0FBF1F7F4
:102670006420B7FBF0F004012009642101FB10780D
:10268000A88900F4004040B1322000EBC800B0FB44
:10269000F1F000F00700044308E0322000EB0810DE
:1026A0006421B0FBF1F000F00F0004432C81BDE881
:1026B000FF874FF41651016000218180C1800181A4
:1026C0000C21418100218181704710B50246002014
:1026D000108A20F470600B884C8823438C88234335
:1026E000CC8823431843108210BD00210180418013
:1026F0008180C180704721B1828942F40052828179
:1027000004E082894DF6FF731A4082817047028B84
:1027100002F47F420283028B0A430283704721B195
:10272000828942F40042828103E08289C2F30E0270
:102730008281704721B1828A42F40062828204E081
:10274000828A4FF2FF731A4082827047C1F30802F7
:102750008280704701468888C0F308007047028A6B
:102760004FF6F0731A400282028A0A4302827047CF
:1027700021B1828942F00202828104E082894FF60F
:10278000FD731A408281704782894FF2FF731A40AD
:10279000828182890A4382817047028A4FF6DF7301
:1027A0001A400282028A0A430282704721B1028AD9
:1027B00042F48042028204E0028A4BF6FF731A4020
:1027C00002827047818941F001018181704721B106
:1027D000828A42F00802828204E0828A4FF6F7730E
:1027E0001A4082827047028BD2B20283028B42EA85
:1027F00001220283704721B1828A42F02002828244
:1028000004E0828A4FF6DF731A408282704721B15A
:10281000828A42F01002828204E0828A4FF6EF73CD
:102820001A4082827047828A4FF6FB731A40828276
:10283000828A0A438282704721B1828A42F0020270
:10284000828204E0828A4FF6FD731A4082827047CA
:102850001AB1838A0B43838202E0838A8B4383828B
:102860007047F0B50346002400260025002040F6FE
:102870006A17B94200D100BF1846C1F3421401F0F3
:102880001F06012707FA06F5012C01D10C3004E0E0
:10289000022C01D1103000E014301AB107682F4328
:1028A000076002E00768AF430760F0BD0246002002
:1028B000B1F5007F00D100BF13880B400BB10120A0
:1028C00000E00020704701F40072B2F5007F00D1F3
:1028D00000BFCA430280704770B50246002400233F
:1028E0000025002040F66A16B14200D100BFC1F3B6
:1028F000421501F01F03012606FA03F3012D13D13F
:102900009689334017E00000001001400044004069
:1029100000480040004C00400050004000140140BE
:1029200000780040007C0040022D02D1168A33401E
:1029300001E0968A33400C12012606FA04F4168848
:10294000344013B10CB1012000E0002070BD10B57F
:102950000022002340F66A14A14200D100BF0A12EF
:1029600001249440A3B2DC43048010BD10B504469A
:10297000FE48844208D10121084601F01CF90021DB
:10298000012001F018F99DE0B4F1804F08D1012138
:10299000084601F0FFF80021012001F0FBF891E06A
:1029A000F348844208D10121022001F0F3F800210C
:1029B000022001F0EFF885E0EE48844208D10121C1
:1029C000042001F0E7F80021042001F0E3F879E0A9
:1029D000E948844208D10121082001F0DBF80021F8
:1029E000082001F0D7F86DE0E448844208D10121C5
:1029F000102001F0CFF80021102001F0CBF861E0A9
:102A0000DF48844208D10121202001F0C3F80021D1
:102A1000202001F0BFF855E0DA48844208D10121B6
:102A2000022001F0C8F80021022001F0C4F849E0BA
:102A3000D548844209D10121080401F0BCF80021E5
:102A40004FF4803001F0B7F83CE0D048844209D11F
:102A50000121480401F0AFF800214FF4003001F0EB
:102A6000AAF82FE0CA48844209D10121880401F064
:102A7000A2F800214FF4802001F09DF822E0C54823
:102A8000844208D10121402001F084F80021402037
:102A900001F080F816E0C048844208D1012180206E
:102AA00001F078F80021802001F074F80AE0BB48BA
:102AB000844207D10121801501F06CF80021A01596
:102AC00001F068F810BD00220288A84B98420ED091
:102AD000AC4B98420BD0B0F1804F08D0A44B984239
:102AE00005D0A44B984202D0A34B984204D14FF694
:102AF0008F731A404B881A43A04B984207D0A04BC3
:102B0000984204D04FF6FF431A400B891A430280C3
:102B10004B68C3620B880385944B984202D0994B53
:102B2000984201D18B7A03860123838270474FF04C
:102B3000FF31416000210180018141808172704735
:102B40000185828270470A46002101884FF68F7303
:102B5000194011430180704741627047C16270475C
:102B60000146486A70470146088D704721B10288C6
:102B700042F00202028004E002884FF6FD731A4020
:102B80000280704721B1028842F00402028004E012
:102B900002884FF6FB731A400280704721B1028809
:102BA00042F08002028004E002884FF67F731A40F0
:102BB0000280704702884FF6F7731A40028002883D
:102BC0000A430280704702884FF6FF431A40028092
:102BD00002880A430280704721B1028842F0010254
:102BE000028004E002884FF6FE731A4002807047AC
:102BF00070B5002400220023058C4FF6FE76354088
:102C00000584028C8388048B4FF68F752C40B51E8B
:102C10002C400D882C43751E2A408D892A434D88EF
:102C20002A43524DA84202D0564DA84213D14FF626
:102C3000F7752A40CD892A434FF6FB752A408D88C7
:102C40002A434FF6FF652B404FF6FF552B400D8A68
:102C50002B434D8A2B43838004838D684563028414
:102C600070BD70B5002400220023058C4FF6EF766E
:102C700035400584028C8388048B48F6FF752C4010
:102C80004FF6FF452C400D884FF6FF7606EA0525E6
:102C90002C434FF6DF752A408D8906EA05152A4335
:102CA0004D8806EA05152A43304DA84202D0354D1D
:102CB000A8421DD14FF67F752A40CD894FF6FF7689
:102CC00006EA05152A434FF6BF752A408D8806EAA5
:102CD00005152A434FF6FF352B404FF2FF752B4069
:102CE0000D8A06EA85052B434D8A06EA85052B43A6
:102CF000838004838D688563028470BD70B5002471
:102D000000220023058C4FF6FF6635400584028CB7
:102D10008388848B4FF68F752C404FF6FC752C40C2
:102D20000D882C434FF6FF552A408D894FF6FF76CC
:102D300006EA05252A434D8806EA05252A430B4D58
:102D4000A84202D00F4DA84238D14FF2FF752A4059
:102D5000CD894FF6FF7606EA05252A434FF6FF3563
:102D60002A408D8806EA05252A4319E00000014023
:102D70000004004000080040000C0040001000402B
:102D800000140040000401400040014000440140A4
:102D90000048014000180040001C00400020004096
:102DA0004EF6FF752B404DF6FF752B400D8A06EA57
:102DB00005152B434D8A06EA05152B438380848332
:102DC0008D68C563028470BD70B5002200230024A5
:102DD000058C4EF6FF7635400584038C8488828B03
:102DE00048F6FF752A404FF6FF452A400D884FF6FA
:102DF000FF7606EA05252A434DF6FF752B408D899F
:102E000006EA05352B434D8806EA05352B43FE4D72
:102E1000A84202D0FD4DA84208D14BF6FF752C40C8
:102E20000D8A4FF6FF7606EA85152C43848082834F
:102E30008D680564038470BD00210180418081801C
:102E400081608181C18101824182704770B50346F2
:102E5000002000241846183001258D40ACB21D8C8E
:102E6000A5431D8409B108290AD100EB610005685A
:102E70004FF68F76354005600568154305600FE015
:102E80000D1FC5F34E052844056848F6FF7635400A
:102E9000056005684FF6FF7606EA022635430560B1
:102EA00070BD4163704781637047C16370470164BF
:102EB00070470A460021018B4FF68F73194011436A
:102EC000018370470A460021018B48F6FF731940C1
:102ED0004FF6FF7303EA02231943018370470A4642
:102EE0000021818B4FF68F73194011438183704706
:102EF0000A460021818B48F6FF7319404FF6FF7395
:102F000003EA02231943818370470A460021018B9B
:102F10004FF6F77319401143018370470A460021A9
:102F2000018B4FF2FF7319404FF6FF7303EA022340
:102F30001943018370470A460021818B4FF6F773CE
:102F400019401143818370470A460021818B4FF25B
:102F5000FF7319404FF6FF7303EA0223194381837D
:102F600070470A460021018B4FF6FB73194011434D
:102F7000018370470A460021018B4FF6FF33194049
:102F80004FF6FF7303EA02231943018370470A4691
:102F90000021818B4FF6FB731940114381837047E9
:102FA0000A460021818B4FF6FF3319404FF6FF731D
:102FB00003EA02231943818370470A460021018BEB
:102FC0004FF67F7319401143018370470A46002171
:102FD000018BC1F30E014FF6FF7303EA022319437D
:102FE000018370470A460021818B4FF67F73194099
:102FF0001143818370470A460021818BC1F30E0182
:103000004FF6FF7303EA02231943818370470A4690
:103010000021018C4FF6FD73194011430184704764
:103020000A460021018C4FF6F773194011430184C1
:1030300070470A460021018C4FF6DF7319404FF6A6
:10304000FF7303EA02131943018470470A46002103
:10305000018C4FF67F7319404FF6FF7303EA02139A
:103060001943018470470A460021018C4FF6FF5333
:1030700019404FF6FF7303EA022319430184704796
:103080000A460021018C4FF2FF7319404FF6FF737F
:1030900003EA02231943018470470A460021018C88
:1030A0004DF6FF7319404FF6FF7303EA02331943DD
:1030B0000184704730B5002301248C40A3B2048CF6
:1030C0009C430484048C02FA01F5ADB22C430484C1
:1030D00030BD30B5002304248C40A3B2048C9C4343
:1030E0000484048C02FA01F5ADB22C43048430BD93
:1030F000828B4FF2FF331A408283828B4FF6FF732D
:1031000003EA01231A4382837047F0B50C46154643
:10311000002100220026078C4EF6FF7C07EA0C07F0
:103120000784818B028C4FF6FF7707EA043640F65E
:10313000FF4739404FF6FF7707EA052739434FF637
:10314000FF7707EA0337394345F6FF773A4046F4FD
:1031500080573A4381830284F0BD828B4FF6F3732C
:103160001A408283828B0A4382837047F0B50C46F3
:103170001546002100220026078C4FF6FF6C07EA57
:103180000C070784818B028C4FF6FF7707EA042631
:103190004FF60C7739404FF6FF7707EA03172F43B6
:1031A00039434FF2FF573A4046F480773A438183E0
:1031B0000284F0BD028B4FF2FF331A400283028B70
:1031C0004FF6FF7303EA01231A4302837047F0B5F9
:1031D0000C461546002100220026078C4FF6EF7C96
:1031E00007EA0C070784018B028C4FF6FF7707EA8A
:1031F000041640F6FF4739404FF6FF7707EA0337DA
:1032000039434FF6FF7703E000000140000401401E
:1032100007EA052739434FF65F773A4046F0100733
:103220003A4301830284F0BD028B4FF6F3731A40D8
:103230000283028B0A4302837047F0B50C461546A1
:1032400000210022068C4FF6FE773E400684018B5B
:10325000028C4FF60C7631407E1C06EA03162E4394
:1032600031434FF6F576324044F001063243018394
:103270000284F0BD70B505460C46208850B92389FC
:10328000A28861882846FFF7D8FFE1882846FFF723
:10329000CBFF25E0208804280AD12389A2886188F1
:1032A0002846FFF794FFE1882846FFF783FF17E0E1
:1032B000208808280AD12389A28861882846FFF738
:1032C00055FFE1882846FFF748FF09E02389A288D7
:1032D00061882846FFF719FFE1882846FFF708FFB5
:1032E00070BD002101804180012181800021C180C9
:1032F000018170472DE9F04105460C460026012763
:10330000608808B9022600E00026A088012801D1C3
:10331000022700E001272088A0B92389A2886188BC
:103320002846FFF78AFFE1882846FFF77DFF2389BB
:103330003A4631462846FFF74AFFE1882846FFF71C
:1033400039FF13E02389A28861882846FFF73FFFF1
:10335000E1882846FFF72EFF23893A463146284662
:10336000FFF76BFFE1882846FFF75EFFBDE8F081BD
:103370000146486B70470146886B70470146C86B31
:1033800070470146086C70470A884B881A438B883F
:103390001A43CB881A430B891A434B891A438B89EA
:1033A0001A43A0F8442070470021018041808180A9
:1033B000C180018141818181704731B1B0F84420E1
:1033C00042F40042A0F8442005E0B0F84420C2F3E3
:1033D0000E02A0F84420704721B1828842F0040216
:1033E000828004E082884FF6FB731A408280704727
:1033F00021B1828842F00102828004E082884FF687
:10340000FE731A40828070471AB183890B4383810F
:1034100002E083898B438381704781827047024633
:103420000020138A0B400BB1012000E00020704700
:10343000CA430282704730B50246002000230024B0
:10344000158A05EA0103958905EA010413B10CB157
:10345000012000E0002030BDCA430282704741EAEB
:103460000203A0F8483070471AB183890B43838167
:1034700002E083898B438381704721B1828842F0C7
:103480000802828004E082884FF6F7731A40828037
:10349000704701894FF6F8721140018170470A4662
:1034A000002101894FF68F73194011430181704744
:1034B00030B504460D4629462046FFF7F0FF208927
:1034C00040F00700208130BD2DE9F04104460D4653
:1034D00016461F46602D06D13B4601223146204646
:1034E000FFF775FE05E03B46012231462046FFF717
:1034F000A4FE29462046FFF7D2FF208940F00700AE
:103500002081BDE8F08130B50C4600210189C9B2A7
:103510004FF6FF7505EA032515432543294301812D
:1035200030BD2DE9F04105460E4617469846002469
:1035300043463A4631462846FFF7E5FF2C894FF6C9
:10354000F870044044F007044FF68F70044044F0D4
:1035500070042C81BDE8F081F0B504460D46164696
:103560001F463B46324629462046FFF7CCFF2089BE
:1035700040F480402081F0BD82884FF68F731A405E
:10358000828082880A438280704702894FF6F873EE
:103590001A40028102890A430281704702894FF66C
:1035A0007F731A40028102890A4302817047F0B595
:1035B0000C4615461E460021002200230189028B7D
:1035C000038C4FF6F877394021434FF6FC473A40D9
:1035D00040F201173A434FF6DD773B404FF6FF7755
:1035E00007EA06172F433B43018102830384F0BDA2
:1035F00021B1828842F08002828004E082884FF606
:103600007F731A4082807047A0F850107047000006
:1036100010B50121880300F0CEFA00214FF480405C
:1036200000F0C9FA10BD1C49086070471B490862C8
:10363000704730B500228B071C0F0F2303FA04F2EA
:10364000154B08338C1053F824309343124C083434
:103650008D1044F8253023468C1053F824308C0705
:10366000240F00FA04F423430B4C08348D1044F863
:10367000253030BD0949DC310860704708490860D1
:103680007047002004492031096801F4807109B1B4
:10369000012000E000207047003801400000274270
:1036A00000042742F948006840F00100F74908602B
:1036B0000020F64908310860F4480068F4490840E1
:1036C000F2490860F348091D0860F348EF49843166
:1036D0000860F0481038091D0860EC48006820F4C4
:1036E0008020EA4908600020E8490C310860E74979
:1036F0008C31086070470021E44A921C1170114619
:103700000870704710B501460022002300204A11BE
:10371000012A02D1DD4C236808E0022A03D1DB4CE8
:103720007034236802E0D94C7434236801F01F021E
:10373000012494401C400CB1012000E0002010BD89
:1037400038B5002000900024002500BF3120FFF78D
:10375000D9FF05460098401C00900098B0F5A04F96
:1037600001D0002DF2D03120FFF7CCFF08B10124A9
:1037700000E00024204638BD01460020C34A1068FE
:1037800020F0F80040EAC10010607047C3490860AB
:1037900070470021BD4A703211701170012802D0AB
:1037A00004280AD104E00121B84A7032117005E002
:1037B0000521B64A7032117000E000BF00BF7047AB
:1037C000B7490860704770B5049C41EA821501262C
:1037D000C6EB530645EA0645054345EA0465AB4E8C
:1037E000361D356070BDAD4908667047820142EAFA
:1037F0000172A64B84331A607047A84988667047E7
:1038000010B5830143EA016343EA02739F4C883495
:10381000236010BDA14908677047A049C86470477C
:1038200002460020994B0833186820F0EC6042EA09
:1038300001031843954B0833186070470246002077
:10384000924B0833186820F0784042EA010318438D
:103850008E4B083318607047014600208B4A0832AF
:10386000106820F003000843106070478748083054
:10387000006800F00C00704701460020834A0832BF
:10388000106820F0F00008431060704701460020E7
:103890007E4A0832106820F4E050084310607047F8
:1038A00001460020794A0832106820F4604040EA5E
:1038B000C10010607047F0B50021002200240225ED
:1038C00000260223714F08373F6807F00C0121B131
:1038D000042905D0082937D105E0724F076036E08A
:1038E000714F076033E0694F3F1D3F68C7F3805653
:1038F000664F3F1D3F6807F03F036EB16A4FB7FB4D
:10390000F3F7DFF888C10CF1040CDCF800C0CCF34D
:10391000881C07FB0CF40CE0624FB7FBF3F7DFF8F1
:103920006CC10CF1040CDCF800C0CCF3881C07FB64
:103930000CF4564F3F1D3F68C7F301477F1C7D00C5
:10394000B4FBF5F7076002E0564F076000BF00BF09
:103950004E4F08373F6807F0F0010909534F7A5C72
:103960000768D7404760494F08373F6807F4E05180
:10397000890A4E4F7A5C4768D7408760434F0837C3
:103980003F6807F46041490B484F7A5C4768D7406D
:10399000C760F0BD002100F44072B2F5407F0AD14B
:1039A0003A4A0832116821F4F811414A02401143A1
:1039B000364A08321160354A70321268C0F30B0380
:1039C0001A43324B70331A607047354944390860E6
:1039D000704733494039086070473649086070477E
:1039E00001460020294A8C32106820F01F004A1E30
:1039F0001043264A8C321060704701460020234A4B
:103A00008C32106820F4F8504A1E40EA02201F4A07
:103A10008C3210607047014600201C4A8C321068BE
:103A200020F4401008431060704701460020174AF8
:103A30008C32106820F44000084310607047014643
:103A40000020124A8C32106820F440300843106085
:103A5000704719490860704739B10C4A3032126812
:103A600002430A4B30331A6006E0084A30321268CB
:103A70008243064B30331A607047F9B1034A34323F
:103A800012680243014B34331A601CE000380240D4
:103A9000FFFFF6EA1030002400300020000047420B
:103AA000800E47420024F40000127A003E000020FD
:103AB000FFFCFF0F5C014742E01147428F4A12684A
:103AC00082438E4B1A60704739B18C4A121D1268BE
:103AD00002438A4B1B1D1A6006E0884A121D1268B9
:103AE0008243864B1B1D1A60704739B1834A0C32E2
:103AF00012680243814B0C331A6006E07F4A0C3295
:103B0000126882437D4B0C331A60704739B17B4A8F
:103B1000103212680243794B10331A6006E0774A7C
:103B2000103212688243754B10331A60704739B1F6
:103B3000724A243A12680243704B243B1A6006E032
:103B40006E4A243A126882436C4B243B1A607047D9
:103B500039B16A4A203A12680243684B203B1A6026
:103B600006E0664A203A12688243644B203B1A60A2
:103B7000704739B1614A1C3A126802435F4B1C3BE3
:103B80001A6006E05D4A1C3A126882435B4B1C3B9C
:103B90001A60704739B1594A143A12680243574BB8
:103BA000143B1A6006E0554A143A12688243534B9C
:103BB000143B1A60704739B1504A103A12680243F8
:103BC0004E4B103B1A6006E04C4A103A1268824392
:103BD0004A4B103B1A60704739B1484A1C32126890
:103BE0000243464B1C331A6006E0444A1C321268FA
:103BF0008243424B1C331A60704739B13F4A20322E
:103C0000126802433D4B20331A6006E03B4A2032E3
:103C100012688243394B20331A60704739B1374AF2
:103C2000243212680243354B24331A6006E0334ACB
:103C3000243212688243314B24331A60704739B101
:103C40002E4A2C32126802432C4B2C331A6006E0A9
:103C50002A4A2C3212688243284B2C331A60704750
:103C600039B1264A303212680243244B30331A608D
:103C700006E0224A303212688243204B30331A6009
:103C80007047012808D11D493C31096841F00801FD
:103C90001A4A3C32116007E018493C31096821F0AA
:103CA0000801164A3C321160704739B1134A273A6D
:103CB00012780243114B273B1A7006E00F4A273A4D
:103CC000127882430D4B273B1A7070470B484030E7
:103CD000006840F080700949403108607047014633
:103CE0000020064A283A12680A400AB1012000E082
:103CF0000020704701492639087070473438024067
:103D0000002041490860091D0860091D0860091D5F
:103D100008603E483C4914310860704700213A4928
:103D20008279002A3AD00A46126803689A430B4601
:103D30001A600A1D126803689A430B1D1A60027903
:103D400011440A6803681A430A602F4A083212684D
:103D500003689A432C4B08331A601A1D12680368D3
:103D60009A43294B0C331A604279102A0ED11A1F3C
:103D7000126803681A43244B08331A601A1D12682C
:103D800003681A43204B0C331A600DE01E49427938
:103D900011440A6803681A430A6005E00279114475
:103DA0000A6803689A430A60704700210160017144
:103DB0000C2141710021817170471349103109684C
:103DC0000143114A103211607047014600200E4A2B
:103DD000143212680A400AB1012000E00020704746
:103DE000094914310860704701460020064A143220
:103DF00012680A400AB1012000E000207047024921
:103E00001431086070470000003C0140FFFF7F0054
:103E10000E49086070470D49486070470B4988603B
:103E200070474AF6AA200949086070474CF6CC4012
:103E300006490860704701460020044AD2680A40DB
:103E40000AB1012000E0002070470000003000406F
:103E500010B501210802FFF7AEFE00214FF480707B
:103E6000FFF7A9FE10BD30B50246002000235068C0
:103E7000F84C20400D790C6844EA0524204350603A
:103E80009068F54C2040D1E903542C438D682C43B5
:103E90004D7944EA450420439060D06A20F47000D4
:103EA0000C7D641EE4B2234340EA0350D06230BD6F
:103EB00000210160017141718160C16001610121D6
:103EC000017570470021E54A1168E54A1140D0E9C3
:103ED00000231A4383681A43C3681A431143E14A13
:103EE000C2F8041370470021016041608160C16025
:103EF000704721B1826842F00102826003E082686B
:103F000022F00102826070470A4600214168D64BC8
:103F100019401143416070474162826270470A460E
:103F20000021416821F01F0111434160704738B101
:103F3000CA49096841F40001CA4AC2F8041306E0FC
:103F4000C649096821F40001C64AC2F80413704743
:103F500038B1C249096841F48001C24AC2F8041369
:103F600006E0BE49096821F48001BE4AC2F8041384
:103F70007047F0B504460D4600200021092D11DDE3
:103F8000E068A5F10A0606EB4607072606FA07F1E0
:103F90008843A5F10A0606EB460603FA06F1084334
:103FA000E0600CE0206905EB4507072606FA07F1FB
:103FB000884305EB450603FA06F108432061072A0A
:103FC0000FDA606B561E06EB86071F2606FA07F10E
:103FD0008843561E06EB860605FA06F10843606321
:103FE00022E00D2A0FDA206BD61F06EB86071F266C
:103FF00006FA07F18843D61F06EB860605FA06F196
:104000000843206310E0E06AA2F10D0606EB860784
:104010001F2606FA07F18843A2F10D0606EB860675
:1040200005FA06F10843E062F0BD816841F0804185
:1040300081607047014600208A6802F080420AB120
:10404000012000E00020704721B1826842F48062C4
:10405000826003E0826822F480628260704721B14E
:10406000826842F00202826003E0826822F002026B
:104070008260704710B50A4600210023416821F490
:104080006041531E41EA4331416010BD21B1426895
:1040900042F40062426003E0426822F4006242603F
:1040A00070470146C86C80B270476C48001D0068BC
:1040B000704721B1826842F48072826003E08268B6
:1040C00022F480728260704721B1826842F40072EB
:1040D000826003E0826822F400728260704738B127
:1040E0005E49096841F400515E4AC2F8041306E0D3
:1040F0005A49096821F400515A4AC2F8041370471A
:10410000F0B504461546002000220026092911DDDD
:10411000E068A1F10A0707EB470C072707FA0CF242
:104120009043A1F10A0707EB470703FA07F2104390
:10413000E0600CE0206901EB410C072707FA0CF264
:10414000904301EB410703FA07F210432061A06B93
:10415000C0F30156EF1C06F1010CA7EB0C0707EBAF
:10416000870C1F2707FA0CF29043EF1C06F1010C95
:10417000A7EB0C0707EB870701FA07F21043A063D0
:10418000F0BD10B50A4600210023816B21F44011D7
:10419000531E41EA0351816310BD08B5002300930B
:1041A0000090009B0B440093009B1A6008BD0A46D8
:1041B0000021816821F470211143816070470A4613
:1041C0000021816821F440111143816070478168AA
:1041D00041F4800181607047014600208A6802F442
:1041E00080020AB1012000E00020704721B142683E
:1041F00042F48062426003E0426822F480624260DE
:10420000704721B1426842F48052426003E0426844
:1042100022F480524260704708B5024600200090A8
:10422000009201F12800009B18440090009800685B
:1042300080B208BD10B50B460021D9B2012404FAA2
:1042400001F11AB144680C43446002E044688C43B5
:10425000446010BDFFFEFFFCFDF7FFC004230140DA
:10426000E030FCFF00200140FFFD3FFF0246002040
:1042700013680B400BB1012000E000207047CA43D7
:104280000260704770B502460020002300240B1224
:10429000556801268E4005EA060415681D4015B1D3
:1042A0000CB1012000E0002070BD00220A12D343AF
:1042B0000360704770477047704770477047754696
:1042C00000F028F8AE4605006946534620F0070086
:1042D000854618B020B5FDF753FFBDE820404FF0EC
:1042E00000064FF000074FF000084FF0000B21F0E0
:1042F0000701AC46ACE8C009ACE8C009ACE8C009AD
:10430000ACE8C0098D4670470446AFF300802046F4
:10431000FBF783FF004870473C0100204FF04070DE
:10432000E1EE100A7047000048430008000000203A
:1043300050000000C401000898430008500000200D
:1043400050070000E001000800000000007A030AA6
:104350000000000000000000010203040607080935
:10436000000000000000000000000100000001004B
:1043700000000000000000000000204100000000DC
:104380000000000000000000000001020304010220
:08439000030406070809000000
:040000050800018965
:00000001FF
